:020000040000FA
:0400000028EF03F0F2
:100008005F82F3CF38F0F4CF39F09EB69DA65DD16C
:100018009E96C6BC02D0C6AE03D054EC0AF00ED3EE
:10002800C7AAC7B43CD1C9CF54F0556A1FD07D0EBA
:10003800D76407D05750D8A404D0010E576E524A3F
:10004800532A7D0ED76005D05704D8A402D0000EDD
:10005800576E53BE0BD0535004E10B0E525CD8A020
:1000680005D0000E536E000E526EE8D2C7A0DFD73F
:10007800C950016E026A036A046A000E9DEC07F01B
:1000880001C04EF002C04FF003C050F004C051F060
:10009800C6884EC028F04FC029F050C02AF051C081
:1000A8002BF0A5EC08F028502910D8B40FD04EC07A
:1000B80028F04FC029F050C02AF051C02BF0A5EC11
:1000C80008F0295003E1C90E285CD8B08B7C4EC0DB
:1000D80001F04FC002F050C003F051C004F0000E10
:1000E800056E000E066E000E076E000E086E02EC1E
:1000F80009F0D8A008D068C04EF069C04FF06AC0B7
:1001080050F06BC051F0000E016E000E026EC80E6A
:10011800036E420E046E4EC005F04FC006F050C08C
:1001280007F051C008F03DEC08F0D8B04CD04EC0F4
:1001380001F04FC002F050C003F051C004F0000EAF
:10014800056E000E066E480E076E430E086E3DECF7
:1001580008F0D8B038D0000E1E6E000E1F6EC80E04
:10016800206EC20E216E4EC01AF04FC01BF050C058
:100178001CF051C01DF0D3EC04F01AC03EF01BC0B7
:100188003FF01CC040F01DC041F03EC01AF03FC017
:100198001BF040C01CF041C01DF0000E1E6E000E8A
:1001A8001F6EA00E206E400E216ED3EC04F01AC014
:1001B8004EF01BC04FF01CC050F01DC051F0010E96
:1001C80011EC0AF045D04EC001F04FC002F050C00B
:1001D80003F051C004F0000E056E000E066EC80E46
:1001E800076E420E086E3DEC08F0D8B03BD0000E0A
:1001F800016E000E026E000E036E000E046E4EC0FD
:1002080005F04FC006F050C007F051C008F03DECB3
:1002180008F0D8B027D04EC01AF04FC01BF050C01D
:100228001CF051C01DF0000E1E6E000E1F6EA00EB9
:10023800206E400E216ED3EC04F01AC04EF01BC0A5
:100248004FF01CC050F01DC051F0000E11EC0AF028
:100258004EC068F04FC069F050C06AF051C06BF0F2
:10026800040033D04EC001F04FC002F050C003F07C
:1002780051C004F0000E056E000E066E570E076E94
:10028800430E086E02EC09F0D8A01FD0000E4E6E87
:10029800000E4F6E000E506E000E516E16D0C7AA9B
:1002A800C7A413D0C9CF54F0556A6CC028F06DC0EC
:1002B80029F06EC02AF06FC02BF0A5EC08F028508A
:1002C800C96EC688C7B0FED7C688A4B2A3A266D036
:1002D800A4926950366E6850596E36C05AF0000EB6
:1002E8000F6E7C0E106E120E116E480E126E59C0F3
:1002F80001F05AC002F0000E02BEFF0E036E046E3B
:10030800010E9DEC07F001C013F002C014F003C009
:1003180015F004C016F059EC06F00FC05BF010C0E1
:100328005CF011C05DF012C05EF082A02FD05BC0FF
:1003380001F05CC002F05DC003F05EC004F0000E86
:10034800056E000E066E000E076E000E086E02ECBB
:1003580009F0D8B01BD05BC01AF05CC01BF05DC0C0
:100368001CF05EC01DF0000E1E6E000E1F6EC80E43
:10037800206E420E216ED3EC04F01AC06CF01BC044
:100388006DF01CC06EF01DC06FF008D05BC06CF043
:100398005CC06DF05DC06EF05EC06FF0F2BAF2A4A2
:1003A8004DD1F2945FEC0AF08B7C4EC02AF04FC01E
:1003B8002BF050C02CF051C02DF05BC02EF05CC06B
:1003C8002FF05DC030F05EC031F0C3EC09F02AC0F8
:1003D80046F02BC047F02CC048F02DC049F046C06D
:1003E80005F047C006F048C007F049C008F07CC0D7
:1003F80001F07DC002F07EC003F07FC004F02AEC5B
:1004080003F001C01EF002C01FF003C020F004C0BA
:1004180021F0000E056E000E066EC80E076E420E25
:10042800086E70C001F071C002F072C003F073C0B2
:1004380004F02AEC03F001C01AF002C01BF003C05C
:100448001CF004C01DF0D3EC04F01AC03EF01BC031
:100458003FF01CC040F01DC041F042C005F043C051
:1004680006F044C007F045C008F078C001F079C034
:1004780002F07AC003F07BC004F02AEC03F001C05C
:100488001EF002C01FF003C020F004C021F03EC0DF
:100498001AF03FC01BF040C01CF041C01DF0D3EC67
:1004A80004F01AC03AF01BC03BF01CC03CF01DC061
:1004B8003DF03AC01AF03BC01BF03CC01CF03DC0F8
:1004C8001DF060C005F061C006F062C007F063C0AF
:1004D80008F074C001F075C002F076C003F077C070
:1004E80004F02AEC03F001C01EF002C01FF003C0A4
:1004F80020F004C021F0D3EC04F01AC064F01BC053
:1005080065F01CC066F01DC067F0000E136E000E8B
:10051800146EC80E156E420E166E64C00FF065C0DC
:1005280010F066C011F067C012F059EC06F00FC069
:1005380028F010C029F011C02AF012C02BF0A5EC49
:1005480008F028C001F029C002F0000E02BEFF0E1C
:10055800036E046E010E9DEC07F001C04AF002C064
:100568004BF003C04CF004C04DF04AC001F04BC042
:1005780002F04CC003F04DC004F0000E056E000EF2
:10058800066EC80E076E430E086E3DEC08F0D8A044
:1005980007D0010E336E900E326E9EEC09F019D022
:1005A8004DAE07D0000E336E000E326E9EEC09F091
:1005B80010D04AC028F04BC029F04CC02AF04DC0DA
:1005C8002BF0A5EC08F028C032F029C033F09EECDF
:1005D80009F0000E016E000E026E700E036E410EE1
:1005E800046E4AC005F04BC006F04CC007F04DC081
:1005F80008F03DEC08F0D8A009D0000E00016C6F9F
:10060800000E6D6F000E6E6F000E6F6F42C060F0CF
:1006180043C061F044C062F045C063F046C042F098
:1006280047C043F048C044F049C045F04AC070F0A4
:100638004BC071F04CC072F04DC073F039C0F4FF7C
:1006480038C0F3FF5F92110047EF09F00450800BA8
:100658000D6E04500424136E03BE13801350D8B4D7
:100668000DD01328D8A408D0000E016E000E026E1B
:10067800000E036E000E046E038E08D0000E016E8D
:10068800000E026E000E036E000E046E0850800B02
:100698000D1A08500824126E07BE12801250D8B4E2
:1006A8000DD01228D8A408D0000E056E000E066ED4
:1006B800000E076E000E086E078E08D0000E056E3D
:1006C800000E066E000E076E000E086E1250D8B4AB
:1006D80003D01350D8A409D0000E016E000E026E8C
:1006E800000E036E000E046E120007500102F3CFD5
:1006F80018F0F4CF19F018500E6E0F6A106A116ACC
:100708001950146E156A166A176A06500202F3CF5A
:1007180018F0F4CF19F018500E26000E0F221022F0
:10072800112219501426000E1522162217220550E0
:100738000302F3CF18F0F4CF19F018500E26000E6C
:100748000F221022112219501426000E15221622EB
:10075800172210C011F00FC010F00EC00FF00E6A73
:1007680005500202F3CF18F0F4CF19F018500E26F6
:1007780019500F22000E1022000E112206500102FD
:10078800F3CF18F0F4CF19F018500E2619500F2295
:10079800000E1022000E112210C011F00FC010F030
:1007A8000EC00FF00E6A05500102F3CF18F0F4CF17
:1007B80019F018500E2619500F22000E1022000EA4
:1007C800112207500202F3CF18F0F4CF19F0185095
:1007D800142619501522000E1622000E1722065054
:1007E8000302F3CF18F0F4CF19F01850142619505B
:1007F8001522000E1622000E172207500302F3CF0F
:1008080018F0F4CF19F01850096E19500A6E0B6AD7
:100818000C6A0BC00CF00AC00BF009C00AF0096A98
:10082800095014260A5015220B5016220C50172274
:100838000EC009F00FC00AF010C00BF011C00CF088
:10084800190E05D0D8900C320B320A320932E82E34
:10085800F9D7095014260A5015220B5016220C50AD
:10086800172210C011F00FC010F00EC00FF00E6A62
:10087800125013C009F00A6A0926000E0A22820ED5
:100888000924186EFF0E0A20196E0FD0D89014365E
:1008980015361636173611BE1480D8900E360F3618
:1008A800103611361806D8A0190616AEEFD7000E66
:1008B800126E11AE17D0FF0E0E14096EFF0E0F1434
:1008C8000A6EFF0E10140B6E7F0E11140C6E095079
:1008D8000A100B100C10D8B403D0010E126E02D0FF
:1008E80014B0FBD71250D8B41FD0010E1426000E36
:1008F80015221622172217A017D014C009F015C008
:100908000AF016C00BF017C00CF00C340C320B3286
:100918000A32093209C014F00AC015F00BC016F0EB
:100928000CC017F0184A192A19BE0DD0195003E146
:100938001828D8A008D0000E146E000E156E800E70
:10094800166E7F0E20D019BE05D019500EE118047E
:10095800D8B00BD0000E146E000E156E000E166E79
:10096800000E176E000E0D6E0FD018C013F0FF0E9C
:100978001416FF0E15167F0E1616000E171613B056
:10098800168ED8901330176E0D50171214C001F040
:1009980015C002F016C003F017C004F012001D5075
:1009A800800B266E1D501D24286E1CBE28802850E2
:1009B800D8B40DD02828D8A408D0000E1A6E000E7E
:1009C8001B6E000E1C6E000E1D6E1C8E06D0000ED7
:1009D8001A6E000E1B6E000E1C6E000E1D6E21504E
:1009E800800B276E26502718D8A4268C2150212446
:1009F800276E20BE27802750D8B40DD02728D8A42A
:100A080008D0000E1E6E000E1F6E000E206E000E27
:100A1800216E208E06D0000E1E6E000E1F6E000E78
:100A2800206E000E216E2850275CD8B022D026AC4C
:100A380002D0800E261A28C029F027C028F029C025
:100A480027F01AC029F01EC01AF029C01EF01BC0DA
:100A580029F01FC01BF029C01FF01CC029F020C0BE
:100A68001CF029C020F01DC029F021C01DF029C0AC
:100A780021F0000E296E285027C022F0236A225E3A
:100A8800000E235A23BE2CD0235004E11A0E225CF8
:100A9800D8A026D01A501B101C101D10D8B402D094
:100AA800010E01D0000E296E000E1A6E000E1B6E8C
:100AB800000E1C6E000E1D6E27C028F015D029A050
:100AC80005D0D89029300109296E02D0D890293252
:100AD8001AB0298E1D341D321C321B321A32282AB4
:100AE8002750285CD8A0EBD726BC28D02850D8A4FB
:100AF80009D0000E1A6E000E1B6E000E1C6E000E42
:100B08001D6E12001E501A261F501B2220501C2238
:100B180021501D221DA071D029A005D0D8902930C0
:100B28000109296E02D0D89029321AB0298E1D34B5
:100B38001D321C321B321A32282A5FD01E501A5C12
:100B48001F501B5820501C581D50800A226E2150DF
:100B5800800A2258D8B025D01A501E5C226E1B502D
:100B68001F58236E1C502058246E1D502158256E86
:100B7800FF0E22241A6EFF0E23201B6EFF0E242068
:100B88001C6EFF0E25201D6E800E261A296C29501A
:100B9800D8A40FD0010E1A26000E1B221C221D22DB
:100BA80008D01E501A5E1F501B5A20501C5A215044
:100BB8001D5A1A501B101C101D10D8A41CD02950E7
:100BC800D8A419D0000E1A6E000E1B6E000E1C6EF3
:100BD800000E1D6E1200D8901A361B361C361D36B4
:100BE80029BE1A8029A002D0D88001D0D8902936F1
:100BF8002850D8A428061CAEEED7000E276E29AEC2
:100C08000BD029C022F07F0E2216D8B403D0010ED3
:100C1800276E02D01AB0FBD72750D8B420D0010EC7
:100C28001A26000E1B221C221D221DA018D01AC035
:100C380022F01BC023F01CC024F01DC025F0253471
:100C4800253224322332223222C01AF023C01BF06C
:100C580024C01CF025C01DF02828D8A4282A28283C
:100C6800D8B403D02850D8A40DD0000E1A6E000EA8
:100C78001B6E000E1C6E000E1D6E2850D8A402D0EC
:100C8800000E266E28A002D01C8E01D01C9ED89083
:100C980028301D6E26BE1D8E1AC01AF01BC01BF010
:100CA8001CC01CF01DC01DF012001250800B1F6EDE
:100CB80012501224266E11BE26802650D8B40DD0AC
:100CC8002628D8A408D0000E0F6E000E106E000E55
:100CD800116E000E126E118E06D0000E0F6E000EF1
:100CE800106E000E116E000E126E1650800B1F1A39
:100CF80016501624276E15BE27802750D8B40DD05D
:100D08002728D8A408D0000E136E000E146E000E0B
:100D1800156E000E166E158E06D0000E136E000EA0
:100D2800146E000E156E000E166E1350141015106A
:100D38001610D8A417D0000E0F6E000E106E000EFD
:100D4800116E000E126E800E11127F0E12121F50BD
:100D580012120FC00FF010C010F011C011F012C025
:100D680012F012002650D8A409D0000E0F6E000E03
:100D7800106E000E116E000E126E1200275026C063
:100D880017F0186A175E000E185A7F0E1724206E87
:100D9800000E1820216E0FC01BF010C01CF011C0EF
:100DA8001DF012C01EF0000E0F6E000E106E000E29
:100DB800116E000E126E000E226E000E236E000ED3
:100DC800246E000E256E000E276E28D02750D8B44A
:100DD80011D0D8901B361C361D361E36D8900F36CB
:100DE80010361136123625BE0F80D890223623369B
:100DF8002436253613501B5C14501C5815501D58AA
:100E080016501E58D8A009D0258C13501B5E1450BC
:100E18001C5A15501D5A16501E5A272A190E276497
:100E2800D5D71B501C101D101E10D8B411D022800D
:100E38000FD0D8900F3610361136123625BE0F80D7
:100E4800D89022362336243625362006D8A0210607
:100E580011AEEFD7000E276E25AE17D0FF0E221465
:100E6800176EFF0E2314186EFF0E2414196E7F0ED2
:100E780025141A6E1750181019101A10D8B403D068
:100E8800010E276E02D00FB0FBD72750D8B41FD061
:100E9800010E0F26000E10221122122212A017D0C6
:100EA8000FC017F010C018F011C019F012C01AF0D6
:100EB8001A341A3219321832173217C00FF018C004
:100EC80010F019C011F01AC012F0204A212A21BED0
:100ED80010D0215003E12028D8A00BD0000E216E9D
:100EE8002068000E0F6E000E106E000E116E000EC0
:100EF800126E21BE05D0215011E12004D8B00ED0C9
:100F0800000E216E000E206E000E0F6E000E106E89
:100F1800000E116E000E126E000E1F6E20C026F01D
:100F280026A002D0118E01D0119ED8902630126EC4
:100F38000ED7096E0950D8A404AE1AD001C005F026
:100F480002C006F003C007F004C008F0051E061E24
:100F5800071E081E052A000E06220722082205C0C1
:100F68000BF006C00CF007C00DF008C00EF008D05A
:100F780001C00BF002C00CF003C00DF004C00EF06D
:100F88000150021003100410D8A409D0000E016EFD
:100F9800000E026E000E036E000E046E1200960E16
:100FA8000A6E06D00A2AD8900E320D320C320B3255
:100FB800000E0B14056E000E0C14066E000E0D14B8
:100FC800076EFE0E0E14086E055006100710081066
:100FD800D8B40DD0E7D70A2A010E0B26000E0C2232
:100FE8000D220E22D8900E320D320C320B32000E2A
:100FF8000B14056E000E0C14066E000E0D14076E11
:10100800FF0E0E14086E0550061007100810D8B40D
:1010180007D0E1D70A06D8900B360C360D360E36B7
:101028000DBE03D0020E0A60F5D70AA00D9ED89017
:101038000A320AC005F0066A076A086A05C008F09D
:10104800076A066A056A05500B1206500C1207500B
:101058000D1208500E120950D8A404AE01D00E8EFD
:101068000BC001F00CC002F00DC003F00EC004F07C
:101078001200000E0114096E000E02140A6E800E92
:1010880003140B6E7F0E04140C6E09500A100B101B
:101098000C10D8A408D0000E016E000E026E000ECF
:1010A800036E000E046E000E0514096E000E061481
:1010B8000A6E800E07140B6E7F0E08140C6E095012
:1010C8000A100B100C10D8A408D0000E056E000EE4
:1010D800066E000E076E000E086E04AE09D0016C95
:1010E800021ED8B0022A031ED8B0032A800E045666
:1010F80008AE09D0056C061ED8B0062A071ED8B05F
:10110800072A800E0856000E011A000E021A000E59
:10111800031A800E041A000E051A000E061A000E95
:10112800071A800E081A0550015C0650025807502D
:10113800035808500458D8B002D0D8901200D8806C
:1011480012002A342B34316E3150D8A409D0000E45
:10115800286E000E296E000E2A6E000E2B6E1200ED
:1011680028C02CF029C02DF02AC02EF02BC02FF05B
:10117800200E05D0D8902F322E322D322C32E82E68
:10118800F9D72C50306E2A8EFF0E2816FF0E29161E
:10119800FF0E2A16000E2B16960E315E31AE0DD0BC
:1011A8003150800A970FD8A0D2D7D8902B322A3244
:1011B80029322832313EF9D70DD01F0E316407D0BD
:1011C800C6D7D890283629362A362B3631063150DC
:1011D800D8A4F7D73050D8B408D02B1E2A1E291E01
:1011E800286C000E29222A222B2228C028F029C088
:1011F80029F02AC02AF02BC02BF01200000E01148F
:10120800096E000E02140A6E800E03140B6E7F0E18
:1012180004140C6E09500A100B100C10D8A408D036
:10122800000E016E000E026E000E036E000E046EBC
:10123800000E0514096E000E06140A6E800E0714BF
:101248000B6E7F0E08140C6E09500A100B100C1050
:10125800D8A408D0000E056E000E066E000E076EAC
:10126800000E086E055001180AE10650021807E141
:101278000750031804E108500418D8B402D0D890D5
:101288001200D8801200900EF66E140EF76E000E43
:10129800F86E00EE74F010EE0CF00900F5CFEEFFDA
:1012A800E550E150FAE1C80EF66E140EF76E000E26
:1012B800F86E00EE5BF010EE04F00900F5CFEEFFDB
:1012C800E550E150FAE100EE60F0140EEE6AE8062F
:1012D800FDE100EE42F0190EEE6AE806FDE15F90CE
:1012E8005F9200011DEF0AF080C082F081C083F098
:1012F8000001D89083338233D8908333823382516C
:10130800BE6ED8908131836F8031826F010E821753
:10131800823B8247BD508219DF0B8219BD6E80C0A7
:1013280082F0010E8217823BBD508219EF0B8219A1
:10133800BD6E120032C034F033C035F0D89035326B
:101348003432D890353234323450BE6ED89033307F
:10135800356E3230346E010E3416343A3446BD5090
:101368003418DF0B3418BD6E32C034F0010E341659
:10137800343ABD503418EF0B3418BD6E1200000E0D
:101388002E1A000E2F1A000E301A800E311A2AC09B
:101398001AF02BC01BF02CC01CF02DC01DF02EC065
:1013A8001EF02FC01FF030C020F031C021F0D3EC68
:1013B80004F01AC02AF01BC02BF01CC02CF01DC072
:1013C8002DF01200700ED36E39EC0AF027EC0AF0FB
:1013D8004EEC0AF030EC0AF004EC0AF041EC0AF0AA
:1013E800D18012000001806F00018005D8A402D0CE
:1013F8008B808B928051D8A412008B908B82120024
:10140800B896B89892869288190EB66E010EB76E85
:10141800700E606E420E636E1200016E0104D8A455
:1014280002D08B808B920150D8A412008B908B82B3
:101438001200E6EC09F0000E0001816F000E806FCB
:1014480078EC09F0FFD7CB68000EBE6E9494050EB9
:10145800CA6E0C0EBD6E1200F28ED08EA382A582CB
:10146800F28AF1849D869F861200949C94909492AF
:101478008B9C010EF6EC09F01200360EC66E360E85
:10148800C86E948A94881200CDCCCC3D2E90A0BE14
:1014980000002C41080ED56E5AEC0AF0D58E1200C9
:1014A800C9CF56F0C69CC69EC6881200B20ED76E2B
:1014B800800ED66E1200B20ED76E800ED66E120057
:0414C8000000A04040
:020000040020DA
:08000000FFFFFFFFFFFFFFFF00
:020000040030CA
:0E000000FFCF0F333C1D85FF0FC00FE00F40F8
:00000001FF
